{
  "address": "0x4a85433C197715Dcf5194a37c2E82087C8559959",
  "abi": [
    {
      "inputs": [
        {
          "internalType": "address",
          "name": "priceFeed",
          "type": "address"
        }
      ],
      "stateMutability": "nonpayable",
      "type": "constructor"
    },
    {
      "inputs": [],
      "name": "cheaperWithdraw",
      "outputs": [],
      "stateMutability": "payable",
      "type": "function"
    },
    {
      "inputs": [],
      "name": "fund",
      "outputs": [],
      "stateMutability": "payable",
      "type": "function"
    },
    {
      "inputs": [],
      "name": "getVersion",
      "outputs": [
        {
          "internalType": "uint256",
          "name": "",
          "type": "uint256"
        }
      ],
      "stateMutability": "view",
      "type": "function"
    },
    {
      "inputs": [
        {
          "internalType": "address",
          "name": "",
          "type": "address"
        }
      ],
      "name": "s_addressToAmountFunded",
      "outputs": [
        {
          "internalType": "uint256",
          "name": "",
          "type": "uint256"
        }
      ],
      "stateMutability": "view",
      "type": "function"
    },
    {
      "inputs": [
        {
          "internalType": "uint256",
          "name": "",
          "type": "uint256"
        }
      ],
      "name": "s_funders",
      "outputs": [
        {
          "internalType": "address",
          "name": "",
          "type": "address"
        }
      ],
      "stateMutability": "view",
      "type": "function"
    },
    {
      "inputs": [],
      "name": "s_owner",
      "outputs": [
        {
          "internalType": "address",
          "name": "",
          "type": "address"
        }
      ],
      "stateMutability": "view",
      "type": "function"
    },
    {
      "inputs": [],
      "name": "s_priceFeed",
      "outputs": [
        {
          "internalType": "contract AggregatorV3Interface",
          "name": "",
          "type": "address"
        }
      ],
      "stateMutability": "view",
      "type": "function"
    },
    {
      "inputs": [],
      "name": "withdraw",
      "outputs": [],
      "stateMutability": "payable",
      "type": "function"
    }
  ],
  "transactionHash": "0x6bc7a123077f528e04b1a296bffa10fd076fd95abff5c7afe52791fd44e4cb47",
  "args": [
    "0x694AA1769357215DE4FAC081bf1f309aDC325306"
  ],
  "numDeployments": 2,
  "solcInputHash": "c504359bd0e23aab5e5fe1bf5927f363",
  "bytecode": "0x60806040523480156200001157600080fd5b50604051620011723803806200117283398181016040528101906200003791906200012a565b80600360006101000a81548173ffffffffffffffffffffffffffffffffffffffff021916908373ffffffffffffffffffffffffffffffffffffffff16021790555033600260006101000a81548173ffffffffffffffffffffffffffffffffffffffff021916908373ffffffffffffffffffffffffffffffffffffffff160217905550506200015c565b600080fd5b600073ffffffffffffffffffffffffffffffffffffffff82169050919050565b6000620000f282620000c5565b9050919050565b6200010481620000e5565b81146200011057600080fd5b50565b6000815190506200012481620000f9565b92915050565b600060208284031215620001435762000142620000c0565b5b6000620001538482850162000113565b91505092915050565b611006806200016c6000396000f3fe60806040526004361061007b5760003560e01c806354861af71161004e57806354861af71461011d578063b60d42881461015a578063be2693f014610164578063e39782401461016e5761007b565b80630d8e6e2c146100805780630ec3b027146100ab5780631bf6132d146100d65780633ccfd60b14610113575b600080fd5b34801561008c57600080fd5b50610095610199565b6040516100a29190610979565b60405180910390f35b3480156100b757600080fd5b506100c0610240565b6040516100cd9190610a13565b60405180910390f35b3480156100e257600080fd5b506100fd60048036038101906100f89190610a71565b610266565b60405161010a9190610979565b60405180910390f35b61011b61027e565b005b34801561012957600080fd5b50610144600480360381019061013f9190610aca565b61042d565b6040516101519190610b06565b60405180910390f35b61016261046c565b005b61016c6105a4565b005b34801561017a57600080fd5b506101836107b7565b6040516101909190610b06565b60405180910390f35b6000600360009054906101000a900473ffffffffffffffffffffffffffffffffffffffff1673ffffffffffffffffffffffffffffffffffffffff166354fd4d506040518163ffffffff1660e01b815260040160206040518083038186803b15801561020357600080fd5b505afa158015610217573d6000803e3d6000fd5b505050506040513d601f19601f8201168201806040525081019061023b9190610b36565b905090565b600360009054906101000a900473ffffffffffffffffffffffffffffffffffffffff1681565b60006020528060005260406000206000915090505481565b600260009054906101000a900473ffffffffffffffffffffffffffffffffffffffff1673ffffffffffffffffffffffffffffffffffffffff163373ffffffffffffffffffffffffffffffffffffffff16146102d857600080fd5b3373ffffffffffffffffffffffffffffffffffffffff166108fc479081150290604051600060405180830381858888f1935050505015801561031e573d6000803e3d6000fd5b5060005b6001805490508110156103ca5760006001828154811061034557610344610b63565b5b9060005260206000200160009054906101000a900473ffffffffffffffffffffffffffffffffffffffff16905060008060008373ffffffffffffffffffffffffffffffffffffffff1673ffffffffffffffffffffffffffffffffffffffff168152602001908152602001600020819055505080806103c290610bc1565b915050610322565b50600067ffffffffffffffff8111156103e6576103e5610c0a565b5b6040519080825280602002602001820160405280156104145781602001602082028036833780820191505090505b506001908051906020019061042a9291906108b9565b50565b6001818154811061043d57600080fd5b906000526020600020016000915054906101000a900473ffffffffffffffffffffffffffffffffffffffff1681565b600060019050806104a8600360009054906101000a900473ffffffffffffffffffffffffffffffffffffffff16346107dd90919063ffffffff16565b10156104e9576040517f08c379a00000000000000000000000000000000000000000000000000000000081526004016104e090610c96565b60405180910390fd5b346000803373ffffffffffffffffffffffffffffffffffffffff1673ffffffffffffffffffffffffffffffffffffffff16815260200190815260200160002060008282546105379190610cb6565b925050819055506001339080600181540180825580915050600190039060005260206000200160009091909190916101000a81548173ffffffffffffffffffffffffffffffffffffffff021916908373ffffffffffffffffffffffffffffffffffffffff16021790555050565b600260009054906101000a900473ffffffffffffffffffffffffffffffffffffffff1673ffffffffffffffffffffffffffffffffffffffff163373ffffffffffffffffffffffffffffffffffffffff16146105fe57600080fd5b3373ffffffffffffffffffffffffffffffffffffffff166108fc479081150290604051600060405180830381858888f19350505050158015610644573d6000803e3d6000fd5b50600060018054806020026020016040519081016040528092919081815260200182805480156106c957602002820191906000526020600020905b8160009054906101000a900473ffffffffffffffffffffffffffffffffffffffff1673ffffffffffffffffffffffffffffffffffffffff168152602001906001019080831161067f575b5050505050905060005b81518110156107535760008282815181106106f1576106f0610b63565b5b6020026020010151905060008060008373ffffffffffffffffffffffffffffffffffffffff1673ffffffffffffffffffffffffffffffffffffffff1681526020019081526020016000208190555050808061074b90610bc1565b9150506106d3565b50600067ffffffffffffffff81111561076f5761076e610c0a565b5b60405190808252806020026020018201604052801561079d5781602001602082028036833780820191505090505b50600190805190602001906107b39291906108b9565b5050565b600260009054906101000a900473ffffffffffffffffffffffffffffffffffffffff1681565b6000806107e983610819565b90506000670de0b6b3a764000085836108029190610d0c565b61080c9190610d95565b9050809250505092915050565b6000808273ffffffffffffffffffffffffffffffffffffffff1663feaf968c6040518163ffffffff1660e01b815260040160a06040518083038186803b15801561086257600080fd5b505afa158015610876573d6000803e3d6000fd5b505050506040513d601f19601f8201168201806040525081019061089a9190610e3e565b5050509150506402540be400816108b19190610eb9565b915050919050565b828054828255906000526020600020908101928215610932579160200282015b828111156109315782518260006101000a81548173ffffffffffffffffffffffffffffffffffffffff021916908373ffffffffffffffffffffffffffffffffffffffff160217905550916020019190600101906108d9565b5b50905061093f9190610943565b5090565b5b8082111561095c576000816000905550600101610944565b5090565b6000819050919050565b61097381610960565b82525050565b600060208201905061098e600083018461096a565b92915050565b600073ffffffffffffffffffffffffffffffffffffffff82169050919050565b6000819050919050565b60006109d96109d46109cf84610994565b6109b4565b610994565b9050919050565b60006109eb826109be565b9050919050565b60006109fd826109e0565b9050919050565b610a0d816109f2565b82525050565b6000602082019050610a286000830184610a04565b92915050565b600080fd5b6000610a3e82610994565b9050919050565b610a4e81610a33565b8114610a5957600080fd5b50565b600081359050610a6b81610a45565b92915050565b600060208284031215610a8757610a86610a2e565b5b6000610a9584828501610a5c565b91505092915050565b610aa781610960565b8114610ab257600080fd5b50565b600081359050610ac481610a9e565b92915050565b600060208284031215610ae057610adf610a2e565b5b6000610aee84828501610ab5565b91505092915050565b610b0081610a33565b82525050565b6000602082019050610b1b6000830184610af7565b92915050565b600081519050610b3081610a9e565b92915050565b600060208284031215610b4c57610b4b610a2e565b5b6000610b5a84828501610b21565b91505092915050565b7f4e487b7100000000000000000000000000000000000000000000000000000000600052603260045260246000fd5b7f4e487b7100000000000000000000000000000000000000000000000000000000600052601160045260246000fd5b6000610bcc82610960565b91507fffffffffffffffffffffffffffffffffffffffffffffffffffffffffffffffff821415610bff57610bfe610b92565b5b600182019050919050565b7f4e487b7100000000000000000000000000000000000000000000000000000000600052604160045260246000fd5b600082825260208201905092915050565b7f596f75206e65656420746f207370656e64206d6f726520455448210000000000600082015250565b6000610c80601b83610c39565b9150610c8b82610c4a565b602082019050919050565b60006020820190508181036000830152610caf81610c73565b9050919050565b6000610cc182610960565b9150610ccc83610960565b9250827fffffffffffffffffffffffffffffffffffffffffffffffffffffffffffffffff03821115610d0157610d00610b92565b5b828201905092915050565b6000610d1782610960565b9150610d2283610960565b9250817fffffffffffffffffffffffffffffffffffffffffffffffffffffffffffffffff0483118215151615610d5b57610d5a610b92565b5b828202905092915050565b7f4e487b7100000000000000000000000000000000000000000000000000000000600052601260045260246000fd5b6000610da082610960565b9150610dab83610960565b925082610dbb57610dba610d66565b5b828204905092915050565b600069ffffffffffffffffffff82169050919050565b610de581610dc6565b8114610df057600080fd5b50565b600081519050610e0281610ddc565b92915050565b6000819050919050565b610e1b81610e08565b8114610e2657600080fd5b50565b600081519050610e3881610e12565b92915050565b600080600080600060a08688031215610e5a57610e59610a2e565b5b6000610e6888828901610df3565b9550506020610e7988828901610e29565b9450506040610e8a88828901610b21565b9350506060610e9b88828901610b21565b9250506080610eac88828901610df3565b9150509295509295909350565b6000610ec482610e08565b9150610ecf83610e08565b9250827f7fffffffffffffffffffffffffffffffffffffffffffffffffffffffffffffff0482116000841360008413161615610f0e57610f0d610b92565b5b817f80000000000000000000000000000000000000000000000000000000000000000583126000841260008413161615610f4b57610f4a610b92565b5b827f80000000000000000000000000000000000000000000000000000000000000000582126000841360008412161615610f8857610f87610b92565b5b827f7fffffffffffffffffffffffffffffffffffffffffffffffffffffffffffffff0582126000841260008412161615610fc557610fc4610b92565b5b82820290509291505056fea26469706673582212200742ffa384c210eae60c5963fe350ed2c840de2edac2ec45202928f2ee18c58d64736f6c63430008080033",
  "devdoc": {
    "kind": "dev",
    "methods": {},
    "version": 1
  },
  "userdoc": {
    "kind": "user",
    "methods": {},
    "version": 1
  },
  "storageLayout": {
    "storage": [
      {
        "astId": 57,
        "contract": "contracts/FundMe.sol:FundMe",
        "label": "s_addressToAmountFunded",
        "offset": 0,
        "slot": "0",
        "type": "t_mapping(t_address,t_uint256)"
      },
      {
        "astId": 60,
        "contract": "contracts/FundMe.sol:FundMe",
        "label": "s_funders",
        "offset": 0,
        "slot": "1",
        "type": "t_array(t_address)dyn_storage"
      },
      {
        "astId": 62,
        "contract": "contracts/FundMe.sol:FundMe",
        "label": "s_owner",
        "offset": 0,
        "slot": "2",
        "type": "t_address"
      },
      {
        "astId": 65,
        "contract": "contracts/FundMe.sol:FundMe",
        "label": "s_priceFeed",
        "offset": 0,
        "slot": "3",
        "type": "t_contract(AggregatorV3Interface)45"
      }
    ],
    "types": {
      "t_address": {
        "encoding": "inplace",
        "label": "address",
        "numberOfBytes": "20"
      },
      "t_array(t_address)dyn_storage": {
        "base": "t_address",
        "encoding": "dynamic_array",
        "label": "address[]",
        "numberOfBytes": "32"
      },
      "t_contract(AggregatorV3Interface)45": {
        "encoding": "inplace",
        "label": "contract AggregatorV3Interface",
        "numberOfBytes": "20"
      },
      "t_mapping(t_address,t_uint256)": {
        "encoding": "mapping",
        "key": "t_address",
        "label": "mapping(address => uint256)",
        "numberOfBytes": "32",
        "value": "t_uint256"
      },
      "t_uint256": {
        "encoding": "inplace",
        "label": "uint256",
        "numberOfBytes": "32"
      }
    }
  }
}